{
  "_format": "hh-sol-artifact-1",
  "contractName": "SampleNFT",
  "sourceName": "contracts/SampleNFT.sol",
  "abi": [
    {
      "anonymous": false,
      "inputs": [
        {
          "indexed": true,
          "internalType": "address",
          "name": "owner",
          "type": "address"
        },
        {
          "indexed": true,
          "internalType": "address",
          "name": "approved",
          "type": "address"
        },
        {
          "indexed": true,
          "internalType": "uint256",
          "name": "tokenId",
          "type": "uint256"
        }
      ],
      "name": "Approval",
      "type": "event"
    },
    {
      "anonymous": false,
      "inputs": [
        {
          "indexed": true,
          "internalType": "address",
          "name": "owner",
          "type": "address"
        },
        {
          "indexed": true,
          "internalType": "address",
          "name": "operator",
          "type": "address"
        },
        {
          "indexed": false,
          "internalType": "bool",
          "name": "approved",
          "type": "bool"
        }
      ],
      "name": "ApprovalForAll",
      "type": "event"
    },
    {
      "anonymous": false,
      "inputs": [
        {
          "indexed": true,
          "internalType": "address",
          "name": "previousOwner",
          "type": "address"
        },
        {
          "indexed": true,
          "internalType": "address",
          "name": "newOwner",
          "type": "address"
        }
      ],
      "name": "OwnershipTransferred",
      "type": "event"
    },
    {
      "anonymous": false,
      "inputs": [
        {
          "indexed": true,
          "internalType": "address",
          "name": "from",
          "type": "address"
        },
        {
          "indexed": true,
          "internalType": "address",
          "name": "to",
          "type": "address"
        },
        {
          "indexed": true,
          "internalType": "uint256",
          "name": "tokenId",
          "type": "uint256"
        }
      ],
      "name": "Transfer",
      "type": "event"
    },
    {
      "inputs": [
        {
          "internalType": "address",
          "name": "to",
          "type": "address"
        },
        {
          "internalType": "uint256",
          "name": "tokenId",
          "type": "uint256"
        }
      ],
      "name": "approve",
      "outputs": [],
      "stateMutability": "nonpayable",
      "type": "function"
    },
    {
      "inputs": [
        {
          "internalType": "address",
          "name": "owner",
          "type": "address"
        }
      ],
      "name": "balanceOf",
      "outputs": [
        {
          "internalType": "uint256",
          "name": "",
          "type": "uint256"
        }
      ],
      "stateMutability": "view",
      "type": "function"
    },
    {
      "inputs": [],
      "name": "baseURI",
      "outputs": [
        {
          "internalType": "string",
          "name": "",
          "type": "string"
        }
      ],
      "stateMutability": "view",
      "type": "function"
    },
    {
      "inputs": [
        {
          "internalType": "string",
          "name": "__baseURI",
          "type": "string"
        }
      ],
      "name": "changeBaseURI",
      "outputs": [],
      "stateMutability": "nonpayable",
      "type": "function"
    },
    {
      "inputs": [
        {
          "internalType": "uint256",
          "name": "tokenId",
          "type": "uint256"
        }
      ],
      "name": "getApproved",
      "outputs": [
        {
          "internalType": "address",
          "name": "",
          "type": "address"
        }
      ],
      "stateMutability": "view",
      "type": "function"
    },
    {
      "inputs": [
        {
          "internalType": "string",
          "name": "__baseURI",
          "type": "string"
        }
      ],
      "name": "initialize",
      "outputs": [],
      "stateMutability": "nonpayable",
      "type": "function"
    },
    {
      "inputs": [
        {
          "internalType": "address",
          "name": "owner",
          "type": "address"
        },
        {
          "internalType": "address",
          "name": "operator",
          "type": "address"
        }
      ],
      "name": "isApprovedForAll",
      "outputs": [
        {
          "internalType": "bool",
          "name": "",
          "type": "bool"
        }
      ],
      "stateMutability": "view",
      "type": "function"
    },
    {
      "inputs": [],
      "name": "mint",
      "outputs": [],
      "stateMutability": "nonpayable",
      "type": "function"
    },
    {
      "inputs": [
        {
          "internalType": "address",
          "name": "",
          "type": "address"
        }
      ],
      "name": "mintedNFT",
      "outputs": [
        {
          "internalType": "uint256",
          "name": "",
          "type": "uint256"
        }
      ],
      "stateMutability": "view",
      "type": "function"
    },
    {
      "inputs": [],
      "name": "name",
      "outputs": [
        {
          "internalType": "string",
          "name": "",
          "type": "string"
        }
      ],
      "stateMutability": "view",
      "type": "function"
    },
    {
      "inputs": [],
      "name": "owner",
      "outputs": [
        {
          "internalType": "address",
          "name": "",
          "type": "address"
        }
      ],
      "stateMutability": "view",
      "type": "function"
    },
    {
      "inputs": [
        {
          "internalType": "uint256",
          "name": "tokenId",
          "type": "uint256"
        }
      ],
      "name": "ownerOf",
      "outputs": [
        {
          "internalType": "address",
          "name": "",
          "type": "address"
        }
      ],
      "stateMutability": "view",
      "type": "function"
    },
    {
      "inputs": [],
      "name": "renounceOwnership",
      "outputs": [],
      "stateMutability": "nonpayable",
      "type": "function"
    },
    {
      "inputs": [
        {
          "internalType": "address",
          "name": "from",
          "type": "address"
        },
        {
          "internalType": "address",
          "name": "to",
          "type": "address"
        },
        {
          "internalType": "uint256",
          "name": "tokenId",
          "type": "uint256"
        }
      ],
      "name": "safeTransferFrom",
      "outputs": [],
      "stateMutability": "nonpayable",
      "type": "function"
    },
    {
      "inputs": [
        {
          "internalType": "address",
          "name": "from",
          "type": "address"
        },
        {
          "internalType": "address",
          "name": "to",
          "type": "address"
        },
        {
          "internalType": "uint256",
          "name": "tokenId",
          "type": "uint256"
        },
        {
          "internalType": "bytes",
          "name": "_data",
          "type": "bytes"
        }
      ],
      "name": "safeTransferFrom",
      "outputs": [],
      "stateMutability": "nonpayable",
      "type": "function"
    },
    {
      "inputs": [
        {
          "internalType": "address",
          "name": "operator",
          "type": "address"
        },
        {
          "internalType": "bool",
          "name": "approved",
          "type": "bool"
        }
      ],
      "name": "setApprovalForAll",
      "outputs": [],
      "stateMutability": "nonpayable",
      "type": "function"
    },
    {
      "inputs": [
        {
          "internalType": "bytes4",
          "name": "interfaceId",
          "type": "bytes4"
        }
      ],
      "name": "supportsInterface",
      "outputs": [
        {
          "internalType": "bool",
          "name": "",
          "type": "bool"
        }
      ],
      "stateMutability": "view",
      "type": "function"
    },
    {
      "inputs": [],
      "name": "symbol",
      "outputs": [
        {
          "internalType": "string",
          "name": "",
          "type": "string"
        }
      ],
      "stateMutability": "view",
      "type": "function"
    },
    {
      "inputs": [
        {
          "internalType": "uint256",
          "name": "index",
          "type": "uint256"
        }
      ],
      "name": "tokenByIndex",
      "outputs": [
        {
          "internalType": "uint256",
          "name": "",
          "type": "uint256"
        }
      ],
      "stateMutability": "view",
      "type": "function"
    },
    {
      "inputs": [],
      "name": "tokenIdCounter",
      "outputs": [
        {
          "internalType": "uint256",
          "name": "",
          "type": "uint256"
        }
      ],
      "stateMutability": "view",
      "type": "function"
    },
    {
      "inputs": [
        {
          "internalType": "address",
          "name": "owner",
          "type": "address"
        },
        {
          "internalType": "uint256",
          "name": "index",
          "type": "uint256"
        }
      ],
      "name": "tokenOfOwnerByIndex",
      "outputs": [
        {
          "internalType": "uint256",
          "name": "",
          "type": "uint256"
        }
      ],
      "stateMutability": "view",
      "type": "function"
    },
    {
      "inputs": [
        {
          "internalType": "uint256",
          "name": "tokenId",
          "type": "uint256"
        }
      ],
      "name": "tokenURI",
      "outputs": [
        {
          "internalType": "string",
          "name": "",
          "type": "string"
        }
      ],
      "stateMutability": "view",
      "type": "function"
    },
    {
      "inputs": [],
      "name": "totalSupply",
      "outputs": [
        {
          "internalType": "uint256",
          "name": "",
          "type": "uint256"
        }
      ],
      "stateMutability": "view",
      "type": "function"
    },
    {
      "inputs": [
        {
          "internalType": "address",
          "name": "from",
          "type": "address"
        },
        {
          "internalType": "address",
          "name": "to",
          "type": "address"
        },
        {
          "internalType": "uint256",
          "name": "tokenId",
          "type": "uint256"
        }
      ],
      "name": "transferFrom",
      "outputs": [],
      "stateMutability": "nonpayable",
      "type": "function"
    },
    {
      "inputs": [
        {
          "internalType": "address",
          "name": "newOwner",
          "type": "address"
        }
      ],
      "name": "transferOwnership",
      "outputs": [],
      "stateMutability": "nonpayable",
      "type": "function"
    }
  ],
  "bytecode": "0x608060405234801561001057600080fd5b50611ef1806100206000396000f3fe608060405234801561001057600080fd5b50600436106101735760003560e01c80636c0360eb116100de57806398bdf6f511610097578063c87b56dd11610071578063c87b56dd1461030c578063e985e9c51461031f578063f2fde38b1461035b578063f62d18881461036e57600080fd5b806398bdf6f5146102dd578063a22cb465146102e6578063b88d4fde146102f957600080fd5b80636c0360eb1461028157806370a0823114610289578063715018a61461029c5780637da68f10146102a45780638da5cb5b146102c457806395d89b41146102d557600080fd5b806323b872dd1161013057806323b872dd1461020f5780632f745c591461022257806339a0c6f91461023557806342842e0e146102485780634f6ccce71461025b5780636352211e1461026e57600080fd5b806301ffc9a71461017857806306fdde03146101a0578063081812fc146101b5578063095ea7b3146101e05780631249c58b146101f557806318160ddd146101fd575b600080fd5b61018b61018636600461190c565b610381565b60405190151581526020015b60405180910390f35b6101a86103ac565b6040516101979190611981565b6101c86101c3366004611994565b61043e565b6040516001600160a01b039091168152602001610197565b6101f36101ee3660046119c9565b6104d8565b005b6101f36105ee565b60cb545b604051908152602001610197565b6101f361021d3660046119f3565b610676565b6102016102303660046119c9565b6106a7565b6101f3610243366004611abb565b61073d565b6101f36102563660046119f3565b61077e565b610201610269366004611994565b610799565b6101c861027c366004611994565b61082c565b6101a86108a3565b610201610297366004611b04565b610931565b6101f36109b8565b6102016102b2366004611b04565b60fd6020526000908152604090205481565b6033546001600160a01b03166101c8565b6101a86109ee565b61020160fb5481565b6101f36102f4366004611b1f565b6109fd565b6101f3610307366004611b5b565b610a08565b6101a861031a366004611994565b610a40565b61018b61032d366004611bd7565b6001600160a01b039182166000908152609c6020908152604080832093909416825291909152205460ff1690565b6101f3610369366004611b04565b610b1b565b6101f361037c366004611abb565b610bb6565b60006001600160e01b0319821663780e9d6360e01b14806103a657506103a682610cd2565b92915050565b6060609780546103bb90611c0a565b80601f01602080910402602001604051908101604052809291908181526020018280546103e790611c0a565b80156104345780601f1061040957610100808354040283529160200191610434565b820191906000526020600020905b81548152906001019060200180831161041757829003601f168201915b5050505050905090565b6000818152609960205260408120546001600160a01b03166104bc5760405162461bcd60e51b815260206004820152602c60248201527f4552433732313a20617070726f76656420717565727920666f72206e6f6e657860448201526b34b9ba32b73a103a37b5b2b760a11b60648201526084015b60405180910390fd5b506000908152609b60205260409020546001600160a01b031690565b60006104e38261082c565b9050806001600160a01b0316836001600160a01b031614156105515760405162461bcd60e51b815260206004820152602160248201527f4552433732313a20617070726f76616c20746f2063757272656e74206f776e656044820152603960f91b60648201526084016104b3565b336001600160a01b038216148061056d575061056d813361032d565b6105df5760405162461bcd60e51b815260206004820152603860248201527f4552433732313a20617070726f76652063616c6c6572206973206e6f74206f7760448201527f6e6572206e6f7220617070726f76656420666f7220616c6c000000000000000060648201526084016104b3565b6105e98383610d22565b505050565b33600090815260fd6020526040902054156106405760405162461bcd60e51b815260206004820152601260248201527113919508185b1c9958591e481b5a5b9d195960721b60448201526064016104b3565b60fb805490600061065083611c5b565b91905055506106613360fb54610d90565b60fb5433600090815260fd6020526040902055565b6106803382610daa565b61069c5760405162461bcd60e51b81526004016104b390611c76565b6105e9838383610ea1565b60006106b283610931565b82106107145760405162461bcd60e51b815260206004820152602b60248201527f455243373231456e756d657261626c653a206f776e657220696e646578206f7560448201526a74206f6620626f756e647360a81b60648201526084016104b3565b506001600160a01b0391909116600090815260c960209081526040808320938352929052205490565b6033546001600160a01b031633146107675760405162461bcd60e51b81526004016104b390611cc7565b805161077a9060fc90602084019061185d565b5050565b6105e983838360405180602001604052806000815250610a08565b60006107a460cb5490565b82106108075760405162461bcd60e51b815260206004820152602c60248201527f455243373231456e756d657261626c653a20676c6f62616c20696e646578206f60448201526b7574206f6620626f756e647360a01b60648201526084016104b3565b60cb828154811061081a5761081a611cfc565b90600052602060002001549050919050565b6000818152609960205260408120546001600160a01b0316806103a65760405162461bcd60e51b815260206004820152602960248201527f4552433732313a206f776e657220717565727920666f72206e6f6e657869737460448201526832b73a103a37b5b2b760b91b60648201526084016104b3565b60fc80546108b090611c0a565b80601f01602080910402602001604051908101604052809291908181526020018280546108dc90611c0a565b80156109295780601f106108fe57610100808354040283529160200191610929565b820191906000526020600020905b81548152906001019060200180831161090c57829003601f168201915b505050505081565b60006001600160a01b03821661099c5760405162461bcd60e51b815260206004820152602a60248201527f4552433732313a2062616c616e636520717565727920666f7220746865207a65604482015269726f206164647265737360b01b60648201526084016104b3565b506001600160a01b03166000908152609a602052604090205490565b6033546001600160a01b031633146109e25760405162461bcd60e51b81526004016104b390611cc7565b6109ec6000611048565b565b6060609880546103bb90611c0a565b61077a33838361109a565b610a123383610daa565b610a2e5760405162461bcd60e51b81526004016104b390611c76565b610a3a84848484611169565b50505050565b6000818152609960205260409020546060906001600160a01b0316610abf5760405162461bcd60e51b815260206004820152602f60248201527f4552433732314d657461646174613a2055524920717565727920666f72206e6f60448201526e3732bc34b9ba32b73a103a37b5b2b760891b60648201526084016104b3565b6000610ac961119c565b90506000815111610ae95760405180602001604052806000815250610b14565b80610af3846111ab565b604051602001610b04929190611d12565b6040516020818303038152906040525b9392505050565b6033546001600160a01b03163314610b455760405162461bcd60e51b81526004016104b390611cc7565b6001600160a01b038116610baa5760405162461bcd60e51b815260206004820152602660248201527f4f776e61626c653a206e6577206f776e657220697320746865207a65726f206160448201526564647265737360d01b60648201526084016104b3565b610bb381611048565b50565b600054610100900460ff16610bd15760005460ff1615610bd5565b303b155b610c385760405162461bcd60e51b815260206004820152602e60248201527f496e697469616c697a61626c653a20636f6e747261637420697320616c72656160448201526d191e481a5b9a5d1a585b1a5e995960921b60648201526084016104b3565b600054610100900460ff16158015610c5a576000805461ffff19166101011790555b610c626112a9565b610ca96040518060400160405280600981526020016814d85b5c1b1953919560ba1b8152506040518060400160405280600481526020016314d3919560e21b8152506112d8565b8151610cbc9060fc90602085019061185d565b50801561077a576000805461ff00191690555050565b60006001600160e01b031982166380ac58cd60e01b1480610d0357506001600160e01b03198216635b5e139f60e01b145b806103a657506301ffc9a760e01b6001600160e01b03198316146103a6565b6000818152609b6020526040902080546001600160a01b0319166001600160a01b0384169081179091558190610d578261082c565b6001600160a01b03167f8c5be1e5ebec7d5bd14f71427d1e84f3dd0314c0f7b2291e5b200ac8c7c3b92560405160405180910390a45050565b61077a828260405180602001604052806000815250611309565b6000818152609960205260408120546001600160a01b0316610e235760405162461bcd60e51b815260206004820152602c60248201527f4552433732313a206f70657261746f7220717565727920666f72206e6f6e657860448201526b34b9ba32b73a103a37b5b2b760a11b60648201526084016104b3565b6000610e2e8361082c565b9050806001600160a01b0316846001600160a01b03161480610e695750836001600160a01b0316610e5e8461043e565b6001600160a01b0316145b80610e9957506001600160a01b038082166000908152609c602090815260408083209388168352929052205460ff165b949350505050565b826001600160a01b0316610eb48261082c565b6001600160a01b031614610f185760405162461bcd60e51b815260206004820152602560248201527f4552433732313a207472616e736665722066726f6d20696e636f72726563742060448201526437bbb732b960d91b60648201526084016104b3565b6001600160a01b038216610f7a5760405162461bcd60e51b8152602060048201526024808201527f4552433732313a207472616e7366657220746f20746865207a65726f206164646044820152637265737360e01b60648201526084016104b3565b610f8583838361133c565b610f90600082610d22565b6001600160a01b0383166000908152609a60205260408120805460019290610fb9908490611d41565b90915550506001600160a01b0382166000908152609a60205260408120805460019290610fe7908490611d58565b909155505060008181526099602052604080822080546001600160a01b0319166001600160a01b0386811691821790925591518493918716917fddf252ad1be2c89b69c2b068fc378daa952ba7f163c4a11628f55a4df523b3ef91a4505050565b603380546001600160a01b038381166001600160a01b0319831681179093556040519116919082907f8be0079c531659141344cd1fd0a4f28419497f9722a3daafe3b4186f6b6457e090600090a35050565b816001600160a01b0316836001600160a01b031614156110fc5760405162461bcd60e51b815260206004820152601960248201527f4552433732313a20617070726f766520746f2063616c6c65720000000000000060448201526064016104b3565b6001600160a01b038381166000818152609c6020908152604080832094871680845294825291829020805460ff191686151590811790915591519182527f17307eab39ab6107e8899845ad3d59bd9653f200f220920489ca2b5937696c31910160405180910390a3505050565b611174848484610ea1565b611180848484846113f4565b610a3a5760405162461bcd60e51b81526004016104b390611d70565b606060fc80546103bb90611c0a565b6060816111cf5750506040805180820190915260018152600360fc1b602082015290565b8160005b81156111f957806111e381611c5b565b91506111f29050600a83611dd8565b91506111d3565b60008167ffffffffffffffff81111561121457611214611a2f565b6040519080825280601f01601f19166020018201604052801561123e576020820181803683370190505b5090505b8415610e9957611253600183611d41565b9150611260600a86611dec565b61126b906030611d58565b60f81b81838151811061128057611280611cfc565b60200101906001600160f81b031916908160001a9053506112a2600a86611dd8565b9450611242565b600054610100900460ff166112d05760405162461bcd60e51b81526004016104b390611e00565b6109ec611501565b600054610100900460ff166112ff5760405162461bcd60e51b81526004016104b390611e00565b61077a8282611531565b611313838361157f565b61132060008484846113f4565b6105e95760405162461bcd60e51b81526004016104b390611d70565b6001600160a01b038316611397576113928160cb8054600083815260cc60205260408120829055600182018355919091527fa7ce836d032b2bf62b7e2097a8e0a6d8aeb35405ad15271e96d3b0188a1d06fb0155565b6113ba565b816001600160a01b0316836001600160a01b0316146113ba576113ba83826116cd565b6001600160a01b0382166113d1576105e98161176a565b826001600160a01b0316826001600160a01b0316146105e9576105e98282611819565b60006001600160a01b0384163b156114f657604051630a85bd0160e11b81526001600160a01b0385169063150b7a0290611438903390899088908890600401611e4b565b602060405180830381600087803b15801561145257600080fd5b505af1925050508015611482575060408051601f3d908101601f1916820190925261147f91810190611e88565b60015b6114dc573d8080156114b0576040519150601f19603f3d011682016040523d82523d6000602084013e6114b5565b606091505b5080516114d45760405162461bcd60e51b81526004016104b390611d70565b805181602001fd5b6001600160e01b031916630a85bd0160e11b149050610e99565b506001949350505050565b600054610100900460ff166115285760405162461bcd60e51b81526004016104b390611e00565b6109ec33611048565b600054610100900460ff166115585760405162461bcd60e51b81526004016104b390611e00565b815161156b90609790602085019061185d565b5080516105e990609890602084019061185d565b6001600160a01b0382166115d55760405162461bcd60e51b815260206004820181905260248201527f4552433732313a206d696e7420746f20746865207a65726f206164647265737360448201526064016104b3565b6000818152609960205260409020546001600160a01b03161561163a5760405162461bcd60e51b815260206004820152601c60248201527f4552433732313a20746f6b656e20616c7265616479206d696e7465640000000060448201526064016104b3565b6116466000838361133c565b6001600160a01b0382166000908152609a6020526040812080546001929061166f908490611d58565b909155505060008181526099602052604080822080546001600160a01b0319166001600160a01b03861690811790915590518392907fddf252ad1be2c89b69c2b068fc378daa952ba7f163c4a11628f55a4df523b3ef908290a45050565b600060016116da84610931565b6116e49190611d41565b600083815260ca6020526040902054909150808214611737576001600160a01b038416600090815260c960209081526040808320858452825280832054848452818420819055835260ca90915290208190555b50600091825260ca602090815260408084208490556001600160a01b03909416835260c981528383209183525290812055565b60cb5460009061177c90600190611d41565b600083815260cc602052604081205460cb80549394509092849081106117a4576117a4611cfc565b906000526020600020015490508060cb83815481106117c5576117c5611cfc565b600091825260208083209091019290925582815260cc909152604080822084905585825281205560cb8054806117fd576117fd611ea5565b6001900381819060005260206000200160009055905550505050565b600061182483610931565b6001600160a01b03909316600090815260c960209081526040808320868452825280832085905593825260ca9052919091209190915550565b82805461186990611c0a565b90600052602060002090601f01602090048101928261188b57600085556118d1565b82601f106118a457805160ff19168380011785556118d1565b828001600101855582156118d1579182015b828111156118d15782518255916020019190600101906118b6565b506118dd9291506118e1565b5090565b5b808211156118dd57600081556001016118e2565b6001600160e01b031981168114610bb357600080fd5b60006020828403121561191e57600080fd5b8135610b14816118f6565b60005b8381101561194457818101518382015260200161192c565b83811115610a3a5750506000910152565b6000815180845261196d816020860160208601611929565b601f01601f19169290920160200192915050565b602081526000610b146020830184611955565b6000602082840312156119a657600080fd5b5035919050565b80356001600160a01b03811681146119c457600080fd5b919050565b600080604083850312156119dc57600080fd5b6119e5836119ad565b946020939093013593505050565b600080600060608486031215611a0857600080fd5b611a11846119ad565b9250611a1f602085016119ad565b9150604084013590509250925092565b634e487b7160e01b600052604160045260246000fd5b600067ffffffffffffffff80841115611a6057611a60611a2f565b604051601f8501601f19908116603f01168101908282118183101715611a8857611a88611a2f565b81604052809350858152868686011115611aa157600080fd5b858560208301376000602087830101525050509392505050565b600060208284031215611acd57600080fd5b813567ffffffffffffffff811115611ae457600080fd5b8201601f81018413611af557600080fd5b610e9984823560208401611a45565b600060208284031215611b1657600080fd5b610b14826119ad565b60008060408385031215611b3257600080fd5b611b3b836119ad565b915060208301358015158114611b5057600080fd5b809150509250929050565b60008060008060808587031215611b7157600080fd5b611b7a856119ad565b9350611b88602086016119ad565b925060408501359150606085013567ffffffffffffffff811115611bab57600080fd5b8501601f81018713611bbc57600080fd5b611bcb87823560208401611a45565b91505092959194509250565b60008060408385031215611bea57600080fd5b611bf3836119ad565b9150611c01602084016119ad565b90509250929050565b600181811c90821680611c1e57607f821691505b60208210811415611c3f57634e487b7160e01b600052602260045260246000fd5b50919050565b634e487b7160e01b600052601160045260246000fd5b6000600019821415611c6f57611c6f611c45565b5060010190565b60208082526031908201527f4552433732313a207472616e736665722063616c6c6572206973206e6f74206f6040820152701ddb995c881b9bdc88185c1c1c9bdd9959607a1b606082015260800190565b6020808252818101527f4f776e61626c653a2063616c6c6572206973206e6f7420746865206f776e6572604082015260600190565b634e487b7160e01b600052603260045260246000fd5b60008351611d24818460208801611929565b835190830190611d38818360208801611929565b01949350505050565b600082821015611d5357611d53611c45565b500390565b60008219821115611d6b57611d6b611c45565b500190565b60208082526032908201527f4552433732313a207472616e7366657220746f206e6f6e20455243373231526560408201527131b2b4bb32b91034b6b83632b6b2b73a32b960711b606082015260800190565b634e487b7160e01b600052601260045260246000fd5b600082611de757611de7611dc2565b500490565b600082611dfb57611dfb611dc2565b500690565b6020808252602b908201527f496e697469616c697a61626c653a20636f6e7472616374206973206e6f74206960408201526a6e697469616c697a696e6760a81b606082015260800190565b6001600160a01b0385811682528416602082015260408101839052608060608201819052600090611e7e90830184611955565b9695505050505050565b600060208284031215611e9a57600080fd5b8151610b14816118f6565b634e487b7160e01b600052603160045260246000fdfea2646970667358221220fb4edffcaa4282340deea0db6a80a70436ce0d9895c42e9149881cc29d3ff77c64736f6c63430008090033",
  "linkReferences": {},
  "deployedLinkReferences": {}
}